{
  "_format": "hh3-artifact-1",
  "contractName": "BinusUKMVoting",
  "sourceName": "contracts/Counter.sol",
  "abi": [
    {
      "inputs": [],
      "stateMutability": "nonpayable",
      "type": "constructor"
    },
    {
      "anonymous": false,
      "inputs": [
        {
          "indexed": true,
          "internalType": "uint256",
          "name": "candidateId",
          "type": "uint256"
        },
        {
          "indexed": true,
          "internalType": "uint256",
          "name": "categoryId",
          "type": "uint256"
        },
        {
          "indexed": false,
          "internalType": "string",
          "name": "name",
          "type": "string"
        }
      ],
      "name": "CandidateAdded",
      "type": "event"
    },
    {
      "anonymous": false,
      "inputs": [
        {
          "indexed": true,
          "internalType": "uint256",
          "name": "candidateId",
          "type": "uint256"
        },
        {
          "indexed": false,
          "internalType": "bool",
          "name": "active",
          "type": "bool"
        }
      ],
      "name": "CandidateStatusChanged",
      "type": "event"
    },
    {
      "anonymous": false,
      "inputs": [
        {
          "indexed": true,
          "internalType": "uint256",
          "name": "categoryId",
          "type": "uint256"
        },
        {
          "indexed": false,
          "internalType": "string",
          "name": "name",
          "type": "string"
        }
      ],
      "name": "CategoryCreated",
      "type": "event"
    },
    {
      "anonymous": false,
      "inputs": [
        {
          "indexed": true,
          "internalType": "uint256",
          "name": "categoryId",
          "type": "uint256"
        },
        {
          "indexed": false,
          "internalType": "bool",
          "name": "active",
          "type": "bool"
        }
      ],
      "name": "CategoryStatusChanged",
      "type": "event"
    },
    {
      "anonymous": false,
      "inputs": [
        {
          "indexed": true,
          "internalType": "address",
          "name": "voter",
          "type": "address"
        },
        {
          "indexed": true,
          "internalType": "uint256",
          "name": "categoryId",
          "type": "uint256"
        },
        {
          "indexed": true,
          "internalType": "uint256",
          "name": "candidateId",
          "type": "uint256"
        }
      ],
      "name": "VoteCast",
      "type": "event"
    },
    {
      "anonymous": false,
      "inputs": [
        {
          "indexed": true,
          "internalType": "address",
          "name": "voter",
          "type": "address"
        }
      ],
      "name": "VoterRegistered",
      "type": "event"
    },
    {
      "anonymous": false,
      "inputs": [
        {
          "indexed": false,
          "internalType": "bool",
          "name": "active",
          "type": "bool"
        }
      ],
      "name": "VotingStatusChanged",
      "type": "event"
    },
    {
      "inputs": [
        {
          "internalType": "uint256",
          "name": "_categoryId",
          "type": "uint256"
        },
        {
          "internalType": "string",
          "name": "_name",
          "type": "string"
        },
        {
          "internalType": "string",
          "name": "_description",
          "type": "string"
        },
        {
          "internalType": "string",
          "name": "_imageUrl",
          "type": "string"
        }
      ],
      "name": "addCandidate",
      "outputs": [
        {
          "internalType": "uint256",
          "name": "",
          "type": "uint256"
        }
      ],
      "stateMutability": "nonpayable",
      "type": "function"
    },
    {
      "inputs": [],
      "name": "admin",
      "outputs": [
        {
          "internalType": "address",
          "name": "",
          "type": "address"
        }
      ],
      "stateMutability": "view",
      "type": "function"
    },
    {
      "inputs": [],
      "name": "candidateCount",
      "outputs": [
        {
          "internalType": "uint256",
          "name": "",
          "type": "uint256"
        }
      ],
      "stateMutability": "view",
      "type": "function"
    },
    {
      "inputs": [
        {
          "internalType": "uint256",
          "name": "",
          "type": "uint256"
        }
      ],
      "name": "candidates",
      "outputs": [
        {
          "internalType": "uint256",
          "name": "id",
          "type": "uint256"
        },
        {
          "internalType": "string",
          "name": "name",
          "type": "string"
        },
        {
          "internalType": "string",
          "name": "description",
          "type": "string"
        },
        {
          "internalType": "string",
          "name": "imageUrl",
          "type": "string"
        },
        {
          "internalType": "uint256",
          "name": "voteCount",
          "type": "uint256"
        },
        {
          "internalType": "bool",
          "name": "isActive",
          "type": "bool"
        }
      ],
      "stateMutability": "view",
      "type": "function"
    },
    {
      "inputs": [
        {
          "internalType": "uint256",
          "name": "",
          "type": "uint256"
        }
      ],
      "name": "categories",
      "outputs": [
        {
          "internalType": "uint256",
          "name": "id",
          "type": "uint256"
        },
        {
          "internalType": "string",
          "name": "name",
          "type": "string"
        },
        {
          "internalType": "string",
          "name": "description",
          "type": "string"
        },
        {
          "internalType": "bool",
          "name": "isActive",
          "type": "bool"
        },
        {
          "internalType": "uint256",
          "name": "totalVotes",
          "type": "uint256"
        }
      ],
      "stateMutability": "view",
      "type": "function"
    },
    {
      "inputs": [],
      "name": "categoryCount",
      "outputs": [
        {
          "internalType": "uint256",
          "name": "",
          "type": "uint256"
        }
      ],
      "stateMutability": "view",
      "type": "function"
    },
    {
      "inputs": [
        {
          "internalType": "uint256",
          "name": "",
          "type": "uint256"
        },
        {
          "internalType": "uint256",
          "name": "",
          "type": "uint256"
        }
      ],
      "name": "categoryHasCandidate",
      "outputs": [
        {
          "internalType": "bool",
          "name": "",
          "type": "bool"
        }
      ],
      "stateMutability": "view",
      "type": "function"
    },
    {
      "inputs": [
        {
          "internalType": "string",
          "name": "_name",
          "type": "string"
        },
        {
          "internalType": "string",
          "name": "_description",
          "type": "string"
        }
      ],
      "name": "createCategory",
      "outputs": [
        {
          "internalType": "uint256",
          "name": "",
          "type": "uint256"
        }
      ],
      "stateMutability": "nonpayable",
      "type": "function"
    },
    {
      "inputs": [
        {
          "internalType": "uint256",
          "name": "_candidateId",
          "type": "uint256"
        }
      ],
      "name": "getCandidate",
      "outputs": [
        {
          "internalType": "uint256",
          "name": "id",
          "type": "uint256"
        },
        {
          "internalType": "string",
          "name": "name",
          "type": "string"
        },
        {
          "internalType": "string",
          "name": "description",
          "type": "string"
        },
        {
          "internalType": "string",
          "name": "imageUrl",
          "type": "string"
        },
        {
          "internalType": "uint256",
          "name": "voteCount",
          "type": "uint256"
        },
        {
          "internalType": "bool",
          "name": "isActive",
          "type": "bool"
        }
      ],
      "stateMutability": "view",
      "type": "function"
    },
    {
      "inputs": [
        {
          "internalType": "uint256",
          "name": "_categoryId",
          "type": "uint256"
        }
      ],
      "name": "getCandidatesByCategory",
      "outputs": [
        {
          "internalType": "uint256[]",
          "name": "",
          "type": "uint256[]"
        }
      ],
      "stateMutability": "view",
      "type": "function"
    },
    {
      "inputs": [
        {
          "internalType": "uint256",
          "name": "_categoryId",
          "type": "uint256"
        }
      ],
      "name": "getCategory",
      "outputs": [
        {
          "internalType": "uint256",
          "name": "id",
          "type": "uint256"
        },
        {
          "internalType": "string",
          "name": "name",
          "type": "string"
        },
        {
          "internalType": "string",
          "name": "description",
          "type": "string"
        },
        {
          "internalType": "bool",
          "name": "isActive",
          "type": "bool"
        },
        {
          "internalType": "uint256",
          "name": "totalVotes",
          "type": "uint256"
        },
        {
          "internalType": "uint256",
          "name": "candidateCount_",
          "type": "uint256"
        }
      ],
      "stateMutability": "view",
      "type": "function"
    },
    {
      "inputs": [
        {
          "internalType": "uint256",
          "name": "_categoryId",
          "type": "uint256"
        }
      ],
      "name": "getCategoryResults",
      "outputs": [
        {
          "internalType": "uint256[]",
          "name": "candidateIds_",
          "type": "uint256[]"
        },
        {
          "internalType": "uint256[]",
          "name": "voteCounts",
          "type": "uint256[]"
        },
        {
          "internalType": "string[]",
          "name": "names",
          "type": "string[]"
        }
      ],
      "stateMutability": "view",
      "type": "function"
    },
    {
      "inputs": [],
      "name": "getTotalVotes",
      "outputs": [
        {
          "internalType": "uint256",
          "name": "",
          "type": "uint256"
        }
      ],
      "stateMutability": "view",
      "type": "function"
    },
    {
      "inputs": [
        {
          "internalType": "address",
          "name": "_voter",
          "type": "address"
        },
        {
          "internalType": "uint256",
          "name": "_categoryId",
          "type": "uint256"
        }
      ],
      "name": "getUserVote",
      "outputs": [
        {
          "internalType": "uint256",
          "name": "",
          "type": "uint256"
        }
      ],
      "stateMutability": "view",
      "type": "function"
    },
    {
      "inputs": [
        {
          "internalType": "address",
          "name": "_voter",
          "type": "address"
        },
        {
          "internalType": "uint256",
          "name": "_categoryId",
          "type": "uint256"
        }
      ],
      "name": "hasUserVoted",
      "outputs": [
        {
          "internalType": "bool",
          "name": "",
          "type": "bool"
        }
      ],
      "stateMutability": "view",
      "type": "function"
    },
    {
      "inputs": [
        {
          "internalType": "address",
          "name": "",
          "type": "address"
        },
        {
          "internalType": "uint256",
          "name": "",
          "type": "uint256"
        }
      ],
      "name": "hasVoted",
      "outputs": [
        {
          "internalType": "bool",
          "name": "",
          "type": "bool"
        }
      ],
      "stateMutability": "view",
      "type": "function"
    },
    {
      "inputs": [
        {
          "internalType": "address",
          "name": "_voter",
          "type": "address"
        }
      ],
      "name": "isRegisteredVoter",
      "outputs": [
        {
          "internalType": "bool",
          "name": "",
          "type": "bool"
        }
      ],
      "stateMutability": "view",
      "type": "function"
    },
    {
      "inputs": [
        {
          "internalType": "address",
          "name": "_voter",
          "type": "address"
        }
      ],
      "name": "registerVoter",
      "outputs": [],
      "stateMutability": "nonpayable",
      "type": "function"
    },
    {
      "inputs": [
        {
          "internalType": "address[]",
          "name": "_voters",
          "type": "address[]"
        }
      ],
      "name": "registerVoters",
      "outputs": [],
      "stateMutability": "nonpayable",
      "type": "function"
    },
    {
      "inputs": [
        {
          "internalType": "address",
          "name": "",
          "type": "address"
        }
      ],
      "name": "registeredVoters",
      "outputs": [
        {
          "internalType": "bool",
          "name": "",
          "type": "bool"
        }
      ],
      "stateMutability": "view",
      "type": "function"
    },
    {
      "inputs": [
        {
          "internalType": "uint256",
          "name": "_candidateId",
          "type": "uint256"
        }
      ],
      "name": "toggleCandidateStatus",
      "outputs": [],
      "stateMutability": "nonpayable",
      "type": "function"
    },
    {
      "inputs": [
        {
          "internalType": "uint256",
          "name": "_categoryId",
          "type": "uint256"
        }
      ],
      "name": "toggleCategoryStatus",
      "outputs": [],
      "stateMutability": "nonpayable",
      "type": "function"
    },
    {
      "inputs": [],
      "name": "toggleVoting",
      "outputs": [],
      "stateMutability": "nonpayable",
      "type": "function"
    },
    {
      "inputs": [
        {
          "internalType": "address",
          "name": "newAdmin",
          "type": "address"
        }
      ],
      "name": "transferAdmin",
      "outputs": [],
      "stateMutability": "nonpayable",
      "type": "function"
    },
    {
      "inputs": [
        {
          "internalType": "uint256",
          "name": "_categoryId",
          "type": "uint256"
        },
        {
          "internalType": "uint256",
          "name": "_candidateId",
          "type": "uint256"
        }
      ],
      "name": "vote",
      "outputs": [],
      "stateMutability": "nonpayable",
      "type": "function"
    },
    {
      "inputs": [
        {
          "internalType": "address",
          "name": "",
          "type": "address"
        },
        {
          "internalType": "uint256",
          "name": "",
          "type": "uint256"
        }
      ],
      "name": "voterChoice",
      "outputs": [
        {
          "internalType": "uint256",
          "name": "",
          "type": "uint256"
        }
      ],
      "stateMutability": "view",
      "type": "function"
    },
    {
      "inputs": [],
      "name": "votingActive",
      "outputs": [
        {
          "internalType": "bool",
          "name": "",
          "type": "bool"
        }
      ],
      "stateMutability": "view",
      "type": "function"
    }
  ],
  "bytecode": "0x6080604052348015600e575f5ffd5b505f805460ff60a01b1933166001600160a81b0319909116178155600181905560025561246a8061003e5f395ff3fe608060405234801561000f575f5ffd5b50600436106101a1575f3560e01c8063a8885463116100f3578063ce4a274311610093578063da36cffe1161006e578063da36cffe14610413578063f3052d261461043e578063f5c05c3c14610463578063f851a44014610476575f5ffd5b8063ce4a2743146103b5578063d46f96ed146103c8578063d55ec9c114610400575f5ffd5b8063aae3bd47116100ce578063aae3bd4714610363578063b224b4e91461036b578063b384abef1461037e578063c6cdbe5e14610391575f5ffd5b8063a88854631461030e578063a9a981a314610338578063a9ff6df114610341575f5ffd5b8063425458251161015e57806378602a4a1161013957806378602a4a146102b15780638f34a838146102d35780639a0e7d66146102f3578063a01bc01f146102fb575f5ffd5b806342545825146102445780634d228cb21461027157806375829def1461029e575f5ffd5b80632be32dbb146101a55780633477ee2e146101c157806335b8e820146101e657806338db6dd3146101f9578063404d540e1461020e578063408e272714610221575b5f5ffd5b6101ae60015481565b6040519081526020015b60405180910390f35b6101d46101cf366004611d2d565b6104a0565b6040516101b896959493929190611d72565b6101d46101f4366004611d2d565b61066a565b61020c610207366004611de6565b6108cb565b005b61020c61021c366004611d2d565b6109ef565b5f5461023490600160a01b900460ff1681565b60405190151581526020016101b8565b610234610252366004611e06565b600660209081525f928352604080842090915290825290205460ff1681565b61023461027f366004611e2e565b600560209081525f928352604080842090915290825290205460ff1681565b61020c6102ac366004611de6565b610aa5565b6102c46102bf366004611d2d565b610b37565b6040516101b893929190611e88565b6102e66102e1366004611d2d565b610de4565b6040516101b89190611f12565b6101ae610e73565b6101ae610309366004611e06565b610eb6565b6101ae61031c366004611e06565b600760209081525f928352604080842090915290825290205481565b6101ae60025481565b61023461034f366004611de6565b60086020525f908152604090205460ff1681565b61020c610f5f565b6101ae610379366004611fd3565b610fed565b61020c61038c366004611e2e565b6111bc565b6103a461039f366004611d2d565b61150b565b6040516101b8959493929190612036565b6101ae6103c3366004612075565b611649565b6102346103d6366004611e06565b6001600160a01b03919091165f908152600660209081526040808320938352929052205460ff1690565b61020c61040e36600461210a565b61189d565b610234610421366004611de6565b6001600160a01b03165f9081526008602052604090205460ff1690565b61045161044c366004611d2d565b6119f9565b6040516101b8969594939291906121b7565b61020c610471366004611d2d565b611c21565b5f54610488906001600160a01b031681565b6040516001600160a01b0390911681526020016101b8565b60046020525f9081526040902080546001820180549192916104c190612200565b80601f01602080910402602001604051908101604052809291908181526020018280546104ed90612200565b80156105385780601f1061050f57610100808354040283529160200191610538565b820191905f5260205f20905b81548152906001019060200180831161051b57829003601f168201915b50505050509080600201805461054d90612200565b80601f016020809104026020016040519081016040528092919081815260200182805461057990612200565b80156105c45780601f1061059b576101008083540402835291602001916105c4565b820191905f5260205f20905b8154815290600101906020018083116105a757829003601f168201915b5050505050908060030180546105d990612200565b80601f016020809104026020016040519081016040528092919081815260200182805461060590612200565b80156106505780601f1061062757610100808354040283529160200191610650565b820191905f5260205f20905b81548152906001019060200180831161063357829003601f168201915b50505050600483015460059093015491929160ff16905086565b5f60608060605f5f5f8711801561068357506002548711155b6106a85760405162461bcd60e51b815260040161069f90612232565b60405180910390fd5b5f60045f8981526020019081526020015f206040518060c00160405290815f82015481526020016001820180546106de90612200565b80601f016020809104026020016040519081016040528092919081815260200182805461070a90612200565b80156107555780601f1061072c57610100808354040283529160200191610755565b820191905f5260205f20905b81548152906001019060200180831161073857829003601f168201915b5050505050815260200160028201805461076e90612200565b80601f016020809104026020016040519081016040528092919081815260200182805461079a90612200565b80156107e55780601f106107bc576101008083540402835291602001916107e5565b820191905f5260205f20905b8154815290600101906020018083116107c857829003601f168201915b505050505081526020016003820180546107fe90612200565b80601f016020809104026020016040519081016040528092919081815260200182805461082a90612200565b80156108755780601f1061084c57610100808354040283529160200191610875565b820191905f5260205f20905b81548152906001019060200180831161085857829003601f168201915b5050509183525050600482015460208083019190915260059092015460ff161515604091820152825191830151908301516060840151608085015160a090950151939d929c50909a509850919650945092505050565b5f546001600160a01b031633146108f45760405162461bcd60e51b815260040161069f9061225d565b6001600160a01b03811661093c5760405162461bcd60e51b815260206004820152600f60248201526e496e76616c6964206164647265737360881b604482015260640161069f565b6001600160a01b0381165f9081526008602052604090205460ff16156109a45760405162461bcd60e51b815260206004820152601860248201527f566f74657220616c726561647920726567697374657265640000000000000000604482015260640161069f565b6001600160a01b0381165f81815260086020526040808220805460ff19166001179055517fb6be2187d059cc2a55fe29e0e503b566e1e0f8c8780096e185429350acffd3dd9190a250565b5f546001600160a01b03163314610a185760405162461bcd60e51b815260040161069f9061225d565b5f81118015610a2957506001548111155b610a455760405162461bcd60e51b815260040161069f9061229f565b5f81815260036020818152604092839020909101805460ff8082161560ff199092168217909255925192161515825282917f5c8993a56be02577a1c90769c6ccaad938e47fd0f9ceb26a1cefb6767445999291015b60405180910390a250565b5f546001600160a01b03163314610ace5760405162461bcd60e51b815260040161069f9061225d565b6001600160a01b038116610b165760405162461bcd60e51b815260206004820152600f60248201526e496e76616c6964206164647265737360881b604482015260640161069f565b5f80546001600160a01b0319166001600160a01b0392909216919091179055565b60608060605f84118015610b4d57506001548411155b610b695760405162461bcd60e51b815260040161069f9061229f565b5f84815260036020908152604080832060050180548251818502810185019093528083529192909190830182828015610bbf57602002820191905f5260205f20905b815481526020019060010190808311610bab575b5050835193945083925050506001600160401b03811115610be257610be2611f24565b604051908082528060200260200182016040528015610c0b578160200160208202803683370190505b509450806001600160401b03811115610c2657610c26611f24565b604051908082528060200260200182016040528015610c4f578160200160208202803683370190505b509350806001600160401b03811115610c6a57610c6a611f24565b604051908082528060200260200182016040528015610c9d57816020015b6060815260200190600190039081610c885790505b5092505f5b81811015610dda575f838281518110610cbd57610cbd6122c9565b6020026020010151905080878381518110610cda57610cda6122c9565b60200260200101818152505060045f8281526020019081526020015f2060040154868381518110610d0d57610d0d6122c9565b60200260200101818152505060045f8281526020019081526020015f206001018054610d3890612200565b80601f0160208091040260200160405190810160405280929190818152602001828054610d6490612200565b8015610daf5780601f10610d8657610100808354040283529160200191610daf565b820191905f5260205f20905b815481529060010190602001808311610d9257829003601f168201915b5050505050858381518110610dc657610dc66122c9565b602090810291909101015250600101610ca2565b5050509193909250565b60605f82118015610df757506001548211155b610e135760405162461bcd60e51b815260040161069f9061229f565b5f8281526003602090815260409182902060050180548351818402810184019094528084529091830182828015610e6757602002820191905f5260205f20905b815481526020019060010190808311610e53575b50505050509050919050565b5f8060015b6001548111610eb0575f81815260036020526040902060040154610e9c90836122f1565b915080610ea881612304565b915050610e78565b50919050565b6001600160a01b0382165f90815260066020908152604080832084845290915281205460ff16610f345760405162461bcd60e51b815260206004820152602360248201527f5573657220686173206e6f7420766f74656420696e20746869732063617465676044820152626f727960e81b606482015260840161069f565b506001600160a01b0382165f9081526007602090815260408083208484529091529020545b92915050565b5f546001600160a01b03163314610f885760405162461bcd60e51b815260040161069f9061225d565b5f805460ff600160a01b808304821615810260ff60a01b1990931692909217928390556040517f9069a1a16ace751e8690f383e12f87b01e8488ba387e626810bd113fef0417f993610fe39390049091161515815260200190565b60405180910390a1565b5f80546001600160a01b031633146110175760405162461bcd60e51b815260040161069f9061225d565b5f54600160a01b900460ff16156110705760405162461bcd60e51b815260206004820152601a60248201527f566f74696e672069732063757272656e746c7920616374697665000000000000604482015260640161069f565b60018054905f61107f83612304565b91905055506040518060c0016040528060015481526020018481526020018381526020016001151581526020015f81526020015f6001600160401b038111156110ca576110ca611f24565b6040519080825280602002602001820160405280156110f3578160200160208202803683370190505b509052600180545f908152600360209081526040909120835181559083015190918201906111219082612368565b50604082015160028201906111369082612368565b50606082015160038201805460ff19169115159190911790556080820151600482015560a08201518051611174916005840191602090910190611cd0565b509050506001547f11c167cc9b439f0ad8bec5588159f1b06b813bc38d50c867a41b23b077be2c1a846040516111aa9190612422565b60405180910390a25060015492915050565b5f54600160a01b900460ff1661120b5760405162461bcd60e51b8152602060048201526014602482015273566f74696e67206973206e6f742061637469766560601b604482015260640161069f565b335f9081526008602052604090205460ff166112695760405162461bcd60e51b815260206004820152601e60248201527f596f7520617265206e6f742061207265676973746572656420766f7465720000604482015260640161069f565b5f8211801561127a57506001548211155b6112965760405162461bcd60e51b815260040161069f9061229f565b5f828152600360208190526040909120015460ff166112f05760405162461bcd60e51b815260206004820152601660248201527543617465676f7279206973206e6f742061637469766560501b604482015260640161069f565b335f90815260066020908152604080832085845290915290205460ff161561136a5760405162461bcd60e51b815260206004820152602760248201527f596f75206861766520616c726561647920766f74656420696e20746869732063604482015266617465676f727960c81b606482015260840161069f565b5f8111801561137b57506002548111155b6113975760405162461bcd60e51b815260040161069f90612232565b5f8181526004602052604090206005015460ff166113f75760405162461bcd60e51b815260206004820152601760248201527f43616e646964617465206973206e6f7420616374697665000000000000000000604482015260640161069f565b5f82815260056020908152604080832084845290915290205460ff1661145f5760405162461bcd60e51b815260206004820152601e60248201527f43616e646964617465206e6f7420696e20746869732063617465676f72790000604482015260640161069f565b335f8181526006602090815260408083208684528252808320805460ff191660011790559282526007815282822085835281528282208490558382526004908190529181209091018054916114b383612304565b90915550505f8281526003602052604081206004018054916114d483612304565b90915550506040518190839033907fb4cfecf70861b7b150d8337780d34fb4cbc2114b5fb1fe51a5c5fca1849f7274905f90a45050565b60036020525f90815260409020805460018201805491929161152c90612200565b80601f016020809104026020016040519081016040528092919081815260200182805461155890612200565b80156115a35780601f1061157a576101008083540402835291602001916115a3565b820191905f5260205f20905b81548152906001019060200180831161158657829003601f168201915b5050505050908060020180546115b890612200565b80601f01602080910402602001604051908101604052809291908181526020018280546115e490612200565b801561162f5780601f106116065761010080835404028352916020019161162f565b820191905f5260205f20905b81548152906001019060200180831161161257829003601f168201915b505050506003830154600490930154919260ff1691905085565b5f80546001600160a01b031633146116735760405162461bcd60e51b815260040161069f9061225d565b5f54600160a01b900460ff16156116cc5760405162461bcd60e51b815260206004820152601a60248201527f566f74696e672069732063757272656e746c7920616374697665000000000000604482015260640161069f565b5f851180156116dd57506001548511155b6116f95760405162461bcd60e51b815260040161069f9061229f565b5f858152600360208190526040909120015460ff166117535760405162461bcd60e51b815260206004820152601660248201527543617465676f7279206973206e6f742061637469766560501b604482015260640161069f565b60028054905f61176283612304565b90915550506040805160c0810182526002548082526020808301888152838501889052606084018790525f60808501819052600160a086018190529381526004909252939020825181559251919291908201906117bf9082612368565b50604082015160028201906117d49082612368565b50606082015160038201906117e99082612368565b506080820151600482015560a0909101516005918201805491151560ff199283161790555f8781526003602090815260408083206002805491870180546001818101835591875285872001929092558b85529583528184208654855290925291829020805490931617909155905490518691907fed8911b3df733b7d5f75724158e54478ea12e30f49c9d31b5261879f5b76586f90611889908890612422565b60405180910390a350600254949350505050565b5f546001600160a01b031633146118c65760405162461bcd60e51b815260040161069f9061225d565b5f5b81518110156119f5575f6001600160a01b03168282815181106118ed576118ed6122c9565b60200260200101516001600160a01b031614158015611944575060085f83838151811061191c5761191c6122c9565b6020908102919091018101516001600160a01b031682528101919091526040015f205460ff16155b156119ed57600160085f848481518110611960576119606122c9565b60200260200101516001600160a01b03166001600160a01b031681526020019081526020015f205f6101000a81548160ff0219169083151502179055508181815181106119af576119af6122c9565b60200260200101516001600160a01b03167fb6be2187d059cc2a55fe29e0e503b566e1e0f8c8780096e185429350acffd3dd60405160405180910390a25b6001016118c8565b5050565b5f6060805f5f5f5f87118015611a1157506001548711155b611a2d5760405162461bcd60e51b815260040161069f9061229f565b5f60035f8981526020019081526020015f206040518060c00160405290815f8201548152602001600182018054611a6390612200565b80601f0160208091040260200160405190810160405280929190818152602001828054611a8f90612200565b8015611ada5780601f10611ab157610100808354040283529160200191611ada565b820191905f5260205f20905b815481529060010190602001808311611abd57829003601f168201915b50505050508152602001600282018054611af390612200565b80601f0160208091040260200160405190810160405280929190818152602001828054611b1f90612200565b8015611b6a5780601f10611b4157610100808354040283529160200191611b6a565b820191905f5260205f20905b815481529060010190602001808311611b4d57829003601f168201915b50505050508152602001600382015f9054906101000a900460ff161515151581526020016004820154815260200160058201805480602002602001604051908101604052809291908181526020018280548015611be457602002820191905f5260205f20905b815481526020019060010190808311611bd0575b5050509190925250508151602083015160408401516060850151608086015160a09096015151939e929d50909b5099509297509550909350505050565b5f546001600160a01b03163314611c4a5760405162461bcd60e51b815260040161069f9061225d565b5f81118015611c5b57506002548111155b611c775760405162461bcd60e51b815260040161069f90612232565b5f81815260046020908152604091829020600501805460ff8082161560ff199092168217909255925192161515825282917f07a9fd7fc1368910c1b62e58319c10b4ba034e9e4d58aa2ef36e9283fc2c5f979101610a9a565b828054828255905f5260205f20908101928215611d09579160200282015b82811115611d09578251825591602001919060010190611cee565b50611d15929150611d19565b5090565b5b80821115611d15575f8155600101611d1a565b5f60208284031215611d3d575f5ffd5b5035919050565b5f81518084528060208401602086015e5f602082860101526020601f19601f83011685010191505092915050565b86815260c060208201525f611d8a60c0830188611d44565b8281036040840152611d9c8188611d44565b90508281036060840152611db08187611d44565b6080840195909552505090151560a090910152949350505050565b80356001600160a01b0381168114611de1575f5ffd5b919050565b5f60208284031215611df6575f5ffd5b611dff82611dcb565b9392505050565b5f5f60408385031215611e17575f5ffd5b611e2083611dcb565b946020939093013593505050565b5f5f60408385031215611e3f575f5ffd5b50508035926020909101359150565b5f8151808452602084019350602083015f5b82811015611e7e578151865260209586019590910190600101611e60565b5093949350505050565b606081525f611e9a6060830186611e4e565b8281036020840152611eac8186611e4e565b9050828103604084015280845180835260208301915060208160051b840101602087015f5b83811015611f0357601f19868403018552611eed838351611d44565b6020958601959093509190910190600101611ed1565b50909998505050505050505050565b602081525f611dff6020830184611e4e565b634e487b7160e01b5f52604160045260245ffd5b604051601f8201601f191681016001600160401b0381118282101715611f6057611f60611f24565b604052919050565b5f82601f830112611f77575f5ffd5b81356001600160401b03811115611f9057611f90611f24565b611fa3601f8201601f1916602001611f38565b818152846020838601011115611fb7575f5ffd5b816020850160208301375f918101602001919091529392505050565b5f5f60408385031215611fe4575f5ffd5b82356001600160401b03811115611ff9575f5ffd5b61200585828601611f68565b92505060208301356001600160401b03811115612020575f5ffd5b61202c85828601611f68565b9150509250929050565b85815260a060208201525f61204e60a0830187611d44565b82810360408401526120608187611d44565b94151560608401525050608001529392505050565b5f5f5f5f60808587031215612088575f5ffd5b8435935060208501356001600160401b038111156120a4575f5ffd5b6120b087828801611f68565b93505060408501356001600160401b038111156120cb575f5ffd5b6120d787828801611f68565b92505060608501356001600160401b038111156120f2575f5ffd5b6120fe87828801611f68565b91505092959194509250565b5f6020828403121561211a575f5ffd5b81356001600160401b0381111561212f575f5ffd5b8201601f8101841361213f575f5ffd5b80356001600160401b0381111561215857612158611f24565b8060051b61216860208201611f38565b91825260208184018101929081019087841115612183575f5ffd5b6020850194505b838510156121ac5761219b85611dcb565b82526020948501949091019061218a565b979650505050505050565b86815260c060208201525f6121cf60c0830188611d44565b82810360408401526121e18188611d44565b95151560608401525050608081019290925260a0909101529392505050565b600181811c9082168061221457607f821691505b602082108103610eb057634e487b7160e01b5f52602260045260245ffd5b602080825260119082015270496e76616c69642063616e64696461746560781b604082015260600190565b60208082526022908201527f4f6e6c792061646d696e2063616e20706572666f726d2074686973206163746960408201526137b760f11b606082015260800190565b60208082526010908201526f496e76616c69642063617465676f727960801b604082015260600190565b634e487b7160e01b5f52603260045260245ffd5b634e487b7160e01b5f52601160045260245ffd5b80820180821115610f5957610f596122dd565b5f60018201612315576123156122dd565b5060010190565b601f82111561236357805f5260205f20601f840160051c810160208510156123415750805b601f840160051c820191505b81811015612360575f815560010161234d565b50505b505050565b81516001600160401b0381111561238157612381611f24565b6123958161238f8454612200565b8461231c565b6020601f8211600181146123c7575f83156123b05750848201515b5f19600385901b1c1916600184901b178455612360565b5f84815260208120601f198516915b828110156123f657878501518255602094850194600190920191016123d6565b508482101561241357868401515f19600387901b60f8161c191681555b50505050600190811b01905550565b602081525f611dff6020830184611d4456fea264697066735822122026de047fee98593df18692dcb7743c622ca8b92505c91dbccdcbd3aac7aaf83e64736f6c634300081c0033",
  "linkReferences": {},
  "deployedLinkReferences": {},
  "immutableReferences": {},
  "inputSourceName": "project/contracts/Counter.sol",
  "buildInfoId": "solc-0_8_28-5df0dc91ef8428482c3c84641155c2efcc4bbabc"
}